{
  "_format": "hh-sol-artifact-1",
  "contractName": "Product",
  "sourceName": "contracts/Product.sol",
  "abi": [
    {
      "inputs": [],
      "stateMutability": "nonpayable",
      "type": "constructor"
    },
    {
      "inputs": [
        {
          "internalType": "uint256",
          "name": "chainid",
          "type": "uint256"
        }
      ],
      "name": "ChainNotSupported",
      "type": "error"
    },
    {
      "inputs": [
        {
          "internalType": "address",
          "name": "sender",
          "type": "address"
        },
        {
          "internalType": "uint256",
          "name": "tokenId",
          "type": "uint256"
        },
        {
          "internalType": "address",
          "name": "owner",
          "type": "address"
        }
      ],
      "name": "ERC721IncorrectOwner",
      "type": "error"
    },
    {
      "inputs": [
        {
          "internalType": "address",
          "name": "operator",
          "type": "address"
        },
        {
          "internalType": "uint256",
          "name": "tokenId",
          "type": "uint256"
        }
      ],
      "name": "ERC721InsufficientApproval",
      "type": "error"
    },
    {
      "inputs": [
        {
          "internalType": "address",
          "name": "approver",
          "type": "address"
        }
      ],
      "name": "ERC721InvalidApprover",
      "type": "error"
    },
    {
      "inputs": [
        {
          "internalType": "address",
          "name": "operator",
          "type": "address"
        }
      ],
      "name": "ERC721InvalidOperator",
      "type": "error"
    },
    {
      "inputs": [
        {
          "internalType": "address",
          "name": "owner",
          "type": "address"
        }
      ],
      "name": "ERC721InvalidOwner",
      "type": "error"
    },
    {
      "inputs": [
        {
          "internalType": "address",
          "name": "receiver",
          "type": "address"
        }
      ],
      "name": "ERC721InvalidReceiver",
      "type": "error"
    },
    {
      "inputs": [
        {
          "internalType": "address",
          "name": "sender",
          "type": "address"
        }
      ],
      "name": "ERC721InvalidSender",
      "type": "error"
    },
    {
      "inputs": [
        {
          "internalType": "uint256",
          "name": "tokenId",
          "type": "uint256"
        }
      ],
      "name": "ERC721NonexistentToken",
      "type": "error"
    },
    {
      "inputs": [
        {
          "internalType": "uint256",
          "name": "value",
          "type": "uint256"
        },
        {
          "internalType": "uint256",
          "name": "length",
          "type": "uint256"
        }
      ],
      "name": "StringsInsufficientHexLength",
      "type": "error"
    },
    {
      "anonymous": false,
      "inputs": [
        {
          "indexed": true,
          "internalType": "address",
          "name": "owner",
          "type": "address"
        },
        {
          "indexed": true,
          "internalType": "address",
          "name": "approved",
          "type": "address"
        },
        {
          "indexed": true,
          "internalType": "uint256",
          "name": "tokenId",
          "type": "uint256"
        }
      ],
      "name": "Approval",
      "type": "event"
    },
    {
      "anonymous": false,
      "inputs": [
        {
          "indexed": true,
          "internalType": "address",
          "name": "owner",
          "type": "address"
        },
        {
          "indexed": true,
          "internalType": "address",
          "name": "operator",
          "type": "address"
        },
        {
          "indexed": false,
          "internalType": "bool",
          "name": "approved",
          "type": "bool"
        }
      ],
      "name": "ApprovalForAll",
      "type": "event"
    },
    {
      "anonymous": false,
      "inputs": [
        {
          "indexed": false,
          "internalType": "uint256",
          "name": "_fromTokenId",
          "type": "uint256"
        },
        {
          "indexed": false,
          "internalType": "uint256",
          "name": "_toTokenId",
          "type": "uint256"
        }
      ],
      "name": "BatchMetadataUpdate",
      "type": "event"
    },
    {
      "anonymous": false,
      "inputs": [
        {
          "indexed": false,
          "internalType": "uint256",
          "name": "_tokenId",
          "type": "uint256"
        }
      ],
      "name": "MetadataUpdate",
      "type": "event"
    },
    {
      "anonymous": false,
      "inputs": [
        {
          "indexed": true,
          "internalType": "address",
          "name": "from",
          "type": "address"
        },
        {
          "indexed": true,
          "internalType": "address",
          "name": "to",
          "type": "address"
        },
        {
          "indexed": true,
          "internalType": "uint256",
          "name": "tokenId",
          "type": "uint256"
        }
      ],
      "name": "Transfer",
      "type": "event"
    },
    {
      "inputs": [
        {
          "internalType": "address",
          "name": "to",
          "type": "address"
        },
        {
          "internalType": "uint256",
          "name": "tokenId",
          "type": "uint256"
        }
      ],
      "name": "approve",
      "outputs": [],
      "stateMutability": "nonpayable",
      "type": "function"
    },
    {
      "inputs": [
        {
          "internalType": "address",
          "name": "owner",
          "type": "address"
        }
      ],
      "name": "balanceOf",
      "outputs": [
        {
          "internalType": "uint256",
          "name": "",
          "type": "uint256"
        }
      ],
      "stateMutability": "view",
      "type": "function"
    },
    {
      "inputs": [
        {
          "internalType": "uint256",
          "name": "subscriptionCost",
          "type": "uint256"
        },
        {
          "internalType": "address",
          "name": "subscriptionToken",
          "type": "address"
        },
        {
          "internalType": "uint256",
          "name": "subscriptionPeriod",
          "type": "uint256"
        },
        {
          "internalType": "string",
          "name": "tokenURI",
          "type": "string"
        }
      ],
      "name": "create",
      "outputs": [],
      "stateMutability": "nonpayable",
      "type": "function"
    },
    {
      "inputs": [
        {
          "internalType": "uint256",
          "name": "tokenId",
          "type": "uint256"
        }
      ],
      "name": "getApproved",
      "outputs": [
        {
          "internalType": "address",
          "name": "",
          "type": "address"
        }
      ],
      "stateMutability": "view",
      "type": "function"
    },
    {
      "inputs": [],
      "name": "getNextTokenId",
      "outputs": [
        {
          "internalType": "uint256",
          "name": "nextTokenId",
          "type": "uint256"
        }
      ],
      "stateMutability": "view",
      "type": "function"
    },
    {
      "inputs": [
        {
          "internalType": "uint256",
          "name": "tokenId",
          "type": "uint256"
        }
      ],
      "name": "getParams",
      "outputs": [
        {
          "components": [
            {
              "internalType": "uint256",
              "name": "subscriptionCost",
              "type": "uint256"
            },
            {
              "internalType": "address",
              "name": "subscriptionToken",
              "type": "address"
            },
            {
              "internalType": "uint256",
              "name": "subscriptionPeriod",
              "type": "uint256"
            },
            {
              "internalType": "uint256",
              "name": "balance",
              "type": "uint256"
            }
          ],
          "internalType": "struct Product.Params",
          "name": "params",
          "type": "tuple"
        }
      ],
      "stateMutability": "view",
      "type": "function"
    },
    {
      "inputs": [
        {
          "internalType": "uint256",
          "name": "tokenId",
          "type": "uint256"
        }
      ],
      "name": "getSubscribers",
      "outputs": [
        {
          "internalType": "address[]",
          "name": "subscribers",
          "type": "address[]"
        }
      ],
      "stateMutability": "view",
      "type": "function"
    },
    {
      "inputs": [
        {
          "internalType": "address",
          "name": "owner",
          "type": "address"
        },
        {
          "internalType": "address",
          "name": "operator",
          "type": "address"
        }
      ],
      "name": "isApprovedForAll",
      "outputs": [
        {
          "internalType": "bool",
          "name": "",
          "type": "bool"
        }
      ],
      "stateMutability": "view",
      "type": "function"
    },
    {
      "inputs": [],
      "name": "name",
      "outputs": [
        {
          "internalType": "string",
          "name": "",
          "type": "string"
        }
      ],
      "stateMutability": "view",
      "type": "function"
    },
    {
      "inputs": [
        {
          "internalType": "address",
          "name": "",
          "type": "address"
        },
        {
          "internalType": "address",
          "name": "",
          "type": "address"
        },
        {
          "internalType": "uint256",
          "name": "",
          "type": "uint256"
        },
        {
          "internalType": "bytes",
          "name": "",
          "type": "bytes"
        }
      ],
      "name": "onERC721Received",
      "outputs": [
        {
          "internalType": "bytes4",
          "name": "",
          "type": "bytes4"
        }
      ],
      "stateMutability": "nonpayable",
      "type": "function"
    },
    {
      "inputs": [
        {
          "internalType": "uint256",
          "name": "tokenId",
          "type": "uint256"
        }
      ],
      "name": "ownerOf",
      "outputs": [
        {
          "internalType": "address",
          "name": "",
          "type": "address"
        }
      ],
      "stateMutability": "view",
      "type": "function"
    },
    {
      "inputs": [],
      "name": "processSubscribers",
      "outputs": [],
      "stateMutability": "nonpayable",
      "type": "function"
    },
    {
      "inputs": [
        {
          "internalType": "address",
          "name": "from",
          "type": "address"
        },
        {
          "internalType": "address",
          "name": "to",
          "type": "address"
        },
        {
          "internalType": "uint256",
          "name": "tokenId",
          "type": "uint256"
        }
      ],
      "name": "safeTransferFrom",
      "outputs": [],
      "stateMutability": "nonpayable",
      "type": "function"
    },
    {
      "inputs": [
        {
          "internalType": "address",
          "name": "from",
          "type": "address"
        },
        {
          "internalType": "address",
          "name": "to",
          "type": "address"
        },
        {
          "internalType": "uint256",
          "name": "tokenId",
          "type": "uint256"
        },
        {
          "internalType": "bytes",
          "name": "data",
          "type": "bytes"
        }
      ],
      "name": "safeTransferFrom",
      "outputs": [],
      "stateMutability": "nonpayable",
      "type": "function"
    },
    {
      "inputs": [
        {
          "internalType": "address",
          "name": "operator",
          "type": "address"
        },
        {
          "internalType": "bool",
          "name": "approved",
          "type": "bool"
        }
      ],
      "name": "setApprovalForAll",
      "outputs": [],
      "stateMutability": "nonpayable",
      "type": "function"
    },
    {
      "inputs": [
        {
          "internalType": "uint256",
          "name": "tokenId",
          "type": "uint256"
        },
        {
          "internalType": "string",
          "name": "email",
          "type": "string"
        }
      ],
      "name": "subscribe",
      "outputs": [],
      "stateMutability": "nonpayable",
      "type": "function"
    },
    {
      "inputs": [
        {
          "internalType": "bytes4",
          "name": "interfaceId",
          "type": "bytes4"
        }
      ],
      "name": "supportsInterface",
      "outputs": [
        {
          "internalType": "bool",
          "name": "",
          "type": "bool"
        }
      ],
      "stateMutability": "view",
      "type": "function"
    },
    {
      "inputs": [],
      "name": "symbol",
      "outputs": [
        {
          "internalType": "string",
          "name": "",
          "type": "string"
        }
      ],
      "stateMutability": "view",
      "type": "function"
    },
    {
      "inputs": [],
      "name": "tableId",
      "outputs": [
        {
          "internalType": "uint256",
          "name": "",
          "type": "uint256"
        }
      ],
      "stateMutability": "view",
      "type": "function"
    },
    {
      "inputs": [
        {
          "internalType": "uint256",
          "name": "tokenId",
          "type": "uint256"
        }
      ],
      "name": "tokenURI",
      "outputs": [
        {
          "internalType": "string",
          "name": "",
          "type": "string"
        }
      ],
      "stateMutability": "view",
      "type": "function"
    },
    {
      "inputs": [
        {
          "internalType": "address",
          "name": "from",
          "type": "address"
        },
        {
          "internalType": "address",
          "name": "to",
          "type": "address"
        },
        {
          "internalType": "uint256",
          "name": "tokenId",
          "type": "uint256"
        }
      ],
      "name": "transferFrom",
      "outputs": [],
      "stateMutability": "nonpayable",
      "type": "function"
    },
    {
      "inputs": [
        {
          "internalType": "uint256",
          "name": "tokenId",
          "type": "uint256"
        }
      ],
      "name": "withdraw",
      "outputs": [],
      "stateMutability": "nonpayable",
      "type": "function"
    }
  ],
  "bytecode": "0x60806040523480156200001157600080fd5b506040518060400160405280601e81526020017f43727970746f20537562736372697074696f6e73202d2050726f6475637400008152506040518060400160405280600381526020017f435350000000000000000000000000000000000000000000000000000000000081525081600090816200008f9190620008c0565b508060019081620000a19190620008c0565b505050620000b4620001a160201b60201c565b73ffffffffffffffffffffffffffffffffffffffff1663a15ab08d30620001306040518060a001604052806061815260200162004b90606191396040518060400160405280601081526020017f70726f647563745f7061796d656e747300000000000000000000000000000000815250620003bb60201b60201c565b6040518363ffffffff1660e01b81526004016200014f92919062000a7b565b6020604051808303816000875af11580156200016f573d6000803e3d6000fd5b505050506040513d601f19601f8201168201806040525081019062000195919062000ae5565b600b8190555062000d61565b600060014603620001c95773012969f7e3439a9b04025b5a049eb9bad82a8c129050620003b8565b600a4603620001ef5773fad44bf5b843de943a09d4f3e84949a11d3aa3e69050620003b8565b61a4b146036200021657739abd75e8640871a5a20d3b4ee6330a04c962affd9050620003b8565b61a4ba46036200023d57731a22854c5b1642760a827f20137a67930ae108d29050620003b8565b608946036200026357735c4e6a9e5c1e1bf445a062006faf19ea6c49afea9050620003b8565b61013a46036200028a577359ef8bf2d6c102b4c42aef9189e1a9f0abfd652d9050620003b8565b62aa36a74603620002b25773c50c62498448acc8dbde43da77f8d5d2e2c7597d9050620003b8565b62aa37dc4603620002da577368a2f4423ad3bf5139db563cf3bc80aa09ed70799050620003b8565b62066eee4603620003025773223a74b8323914afdc3ff1e5005564dc17231d6e9050620003b8565b6201388146036200032a57734b48841d4b32c4650e4abc117a03fe8b51f38f689050620003b8565b6204cb2f4603620003525773030bcf3d50cad04c2e57391b12740982a93086219050620003b8565b617a694603620003795773e7f1725e7734ce288f8367e1bb143e90bb3f05129050620003b8565b466040517f264e42cf000000000000000000000000000000000000000000000000000000008152600401620003af919062000b28565b60405180910390fd5b90565b606081620003cf46620003fb60201b60201c565b84604051602001620003e49392919062000cc7565b604051602081830303815290604052905092915050565b6060600060016200041284620004da60201b60201c565b01905060008167ffffffffffffffff81111562000434576200043362000651565b5b6040519080825280601f01601f191660200182016040528015620004675781602001600182028036833780820191505090505b509050600082602001820190505b600115620004cf578080600190039150507f3031323334353637383961626364656600000000000000000000000000000000600a86061a8153600a8581620004c257620004c162000d32565b5b0494506000850362000475575b819350505050919050565b600080600090507a184f03e93ff9f4daa797ed6e38ed64bf6a1f01000000000000000083106200053c577a184f03e93ff9f4daa797ed6e38ed64bf6a1f010000000000000000838162000532576200053162000d32565b5b0492506040810190505b6d04ee2d6d415b85acef810000000083106200057d576d04ee2d6d415b85acef8100000000838162000573576200057262000d32565b5b0492506020810190505b662386f26fc100008310620005b057662386f26fc100008381620005a657620005a562000d32565b5b0492506010810190505b6305f5e1008310620005dd576305f5e1008381620005d357620005d262000d32565b5b0492506008810190505b612710831062000606576127108381620005fc57620005fb62000d32565b5b0492506004810190505b606483106200062d576064838162000623576200062262000d32565b5b0492506002810190505b600a83106200063d576001810190505b80915050919050565b600081519050919050565b7f4e487b7100000000000000000000000000000000000000000000000000000000600052604160045260246000fd5b7f4e487b7100000000000000000000000000000000000000000000000000000000600052602260045260246000fd5b60006002820490506001821680620006c857607f821691505b602082108103620006de57620006dd62000680565b5b50919050565b60008190508160005260206000209050919050565b60006020601f8301049050919050565b600082821b905092915050565b600060088302620007487fffffffffffffffffffffffffffffffffffffffffffffffffffffffffffffffff8262000709565b62000754868362000709565b95508019841693508086168417925050509392505050565b6000819050919050565b6000819050919050565b6000620007a16200079b62000795846200076c565b62000776565b6200076c565b9050919050565b6000819050919050565b620007bd8362000780565b620007d5620007cc82620007a8565b84845462000716565b825550505050565b600090565b620007ec620007dd565b620007f9818484620007b2565b505050565b5b81811015620008215762000815600082620007e2565b600181019050620007ff565b5050565b601f82111562000870576200083a81620006e4565b6200084584620006f9565b8101602085101562000855578190505b6200086d6200086485620006f9565b830182620007fe565b50505b505050565b600082821c905092915050565b6000620008956000198460080262000875565b1980831691505092915050565b6000620008b0838362000882565b9150826002028217905092915050565b620008cb8262000646565b67ffffffffffffffff811115620008e757620008e662000651565b5b620008f38254620006af565b6200090082828562000825565b600060209050601f83116001811462000938576000841562000923578287015190505b6200092f8582620008a2565b8655506200099f565b601f1984166200094886620006e4565b60005b8281101562000972578489015182556001820191506020850194506020810190506200094b565b868310156200099257848901516200098e601f89168262000882565b8355505b6001600288020188555050505b505050505050565b600073ffffffffffffffffffffffffffffffffffffffff82169050919050565b6000620009d482620009a7565b9050919050565b620009e681620009c7565b82525050565b600082825260208201905092915050565b60005b8381101562000a1d57808201518184015260208101905062000a00565b60008484015250505050565b6000601f19601f8301169050919050565b600062000a478262000646565b62000a538185620009ec565b935062000a65818560208601620009fd565b62000a708162000a29565b840191505092915050565b600060408201905062000a926000830185620009db565b818103602083015262000aa6818462000a3a565b90509392505050565b600080fd5b62000abf816200076c565b811462000acb57600080fd5b50565b60008151905062000adf8162000ab4565b92915050565b60006020828403121562000afe5762000afd62000aaf565b5b600062000b0e8482850162000ace565b91505092915050565b62000b22816200076c565b82525050565b600060208201905062000b3f600083018462000b17565b92915050565b600081905092915050565b7f435245415445205441424c452000000000000000000000000000000000000000600082015250565b600062000b88600d8362000b45565b915062000b958262000b50565b600d82019050919050565b600062000bad8262000646565b62000bb9818562000b45565b935062000bcb818560208601620009fd565b80840191505092915050565b7f5f00000000000000000000000000000000000000000000000000000000000000600082015250565b600062000c0f60018362000b45565b915062000c1c8262000bd7565b600182019050919050565b7f2800000000000000000000000000000000000000000000000000000000000000600082015250565b600062000c5f60018362000b45565b915062000c6c8262000c27565b600182019050919050565b7f2900000000000000000000000000000000000000000000000000000000000000600082015250565b600062000caf60018362000b45565b915062000cbc8262000c77565b600182019050919050565b600062000cd48262000b79565b915062000ce2828662000ba0565b915062000cef8262000c00565b915062000cfd828562000ba0565b915062000d0a8262000c50565b915062000d18828462000ba0565b915062000d258262000ca0565b9150819050949350505050565b7f4e487b7100000000000000000000000000000000000000000000000000000000600052601260045260246000fd5b613e1f8062000d716000396000f3fe608060405234801561001057600080fd5b50600436106101425760003560e01c80636352211e116100b8578063a22cb4651161007c578063a22cb46514610385578063b88d4fde146103a1578063c2c1e2cb146103bd578063c87b56dd146103db578063caa0f92a1461040b578063e985e9c51461042957610142565b80636352211e146102cf5780636722bbba146102ff57806370a082311461031b57806386d4fbd31461034b57806395d89b411461036757610142565b8063150b7a021161010a578063150b7a021461021157806323b872dd146102415780632e1a7d4d1461025d5780633b6058151461027957806342842e0e146102a9578063628f13d3146102c557610142565b806301ffc9a71461014757806306fdde0314610177578063081812fc1461019557806308a4f072146101c5578063095ea7b3146101f5575b600080fd5b610161600480360381019061015c9190612980565b610459565b60405161016e91906129c8565b60405180910390f35b61017f6104ba565b60405161018c9190612a73565b60405180910390f35b6101af60048036038101906101aa9190612acb565b61054c565b6040516101bc9190612b39565b60405180910390f35b6101df60048036038101906101da9190612acb565b610568565b6040516101ec9190612bc7565b60405180910390f35b61020f600480360381019061020a9190612c0e565b610609565b005b61022b60048036038101906102269190612d83565b61061f565b6040516102389190612e15565b60405180910390f35b61025b60048036038101906102569190612e30565b610633565b005b61027760048036038101906102729190612acb565b610735565b005b610293600480360381019061028e9190612acb565b6108ee565b6040516102a09190612f32565b60405180910390f35b6102c360048036038101906102be9190612e30565b61098f565b005b6102cd6109af565b005b6102e960048036038101906102e49190612acb565b6109d5565b6040516102f69190612b39565b60405180910390f35b61031960048036038101906103149190612ff5565b6109e7565b005b61033560048036038101906103309190613078565b610ad0565b60405161034291906130b4565b60405180910390f35b610365600480360381019061036091906130cf565b610b8a565b005b61036f610c57565b60405161037c9190612a73565b60405180910390f35b61039f600480360381019061039a9190613157565b610ce9565b005b6103bb60048036038101906103b69190612d83565b610cff565b005b6103c5610d1c565b6040516103d291906130b4565b60405180910390f35b6103f560048036038101906103f09190612acb565b610d22565b6040516104029190612a73565b60405180910390f35b610413610e35565b60405161042091906130b4565b60405180910390f35b610443600480360381019061043e9190613197565b610e3f565b60405161045091906129c8565b60405180910390f35b6000634906490660e01b7bffffffffffffffffffffffffffffffffffffffffffffffffffffffff1916827bffffffffffffffffffffffffffffffffffffffffffffffffffffffff191614806104b357506104b282610ed3565b5b9050919050565b6060600080546104c990613206565b80601f01602080910402602001604051908101604052809291908181526020018280546104f590613206565b80156105425780601f1061051757610100808354040283529160200191610542565b820191906000526020600020905b81548152906001019060200180831161052557829003601f168201915b5050505050905090565b600061055782610fb5565b506105618261103d565b9050919050565b6105706128d6565b60086000838152602001908152602001600020604051806080016040529081600082015481526020016001820160009054906101000a900473ffffffffffffffffffffffffffffffffffffffff1673ffffffffffffffffffffffffffffffffffffffff1673ffffffffffffffffffffffffffffffffffffffff168152602001600282015481526020016003820154815250509050919050565b61061b828261061661107a565b611082565b5050565b600063150b7a0260e01b9050949350505050565b600073ffffffffffffffffffffffffffffffffffffffff168273ffffffffffffffffffffffffffffffffffffffff16036106a55760006040517f64a0ae9200000000000000000000000000000000000000000000000000000000815260040161069c9190612b39565b60405180910390fd5b60006106b983836106b461107a565b611094565b90508373ffffffffffffffffffffffffffffffffffffffff168173ffffffffffffffffffffffffffffffffffffffff161461072f578382826040517f64283d7b00000000000000000000000000000000000000000000000000000000815260040161072693929190613237565b60405180910390fd5b50505050565b3373ffffffffffffffffffffffffffffffffffffffff16610755826112ae565b73ffffffffffffffffffffffffffffffffffffffff16146107ab576040517f08c379a00000000000000000000000000000000000000000000000000000000081526004016107a2906132ba565b60405180910390fd5b6000600860008381526020019081526020016000206003015411610804576040517f08c379a00000000000000000000000000000000000000000000000000000000081526004016107fb90613326565b60405180910390fd5b6008600082815260200190815260200160002060010160009054906101000a900473ffffffffffffffffffffffffffffffffffffffff1673ffffffffffffffffffffffffffffffffffffffff1663a9059cbb3360086000858152602001908152602001600020600301546040518363ffffffff1660e01b815260040161088b929190613346565b6020604051808303816000875af11580156108aa573d6000803e3d6000fd5b505050506040513d601f19601f820116820180604052508101906108ce9190613384565b506000600860008381526020019081526020016000206003018190555050565b60606009600083815260200190815260200160002080548060200260200160405190810160405280929190818152602001828054801561098357602002820191906000526020600020905b8160009054906101000a900473ffffffffffffffffffffffffffffffffffffffff1673ffffffffffffffffffffffffffffffffffffffff1681526020019060010190808311610939575b50505050509050919050565b6109aa83838360405180602001604052806000815250610cff565b505050565b60005b6007548110156109d2576109c5816112eb565b80806001019150506109b2565b50565b60006109e082610fb5565b9050919050565b6000600760008154809291906109fc906133e0565b919050559050610a0c3382611386565b610a16818361147f565b60405180608001604052808681526020018573ffffffffffffffffffffffffffffffffffffffff1681526020018481526020016000815250600860008381526020019081526020016000206000820151816000015560208201518160010160006101000a81548173ffffffffffffffffffffffffffffffffffffffff021916908373ffffffffffffffffffffffffffffffffffffffff16021790555060408201518160020155606082015181600301559050505050505050565b60008073ffffffffffffffffffffffffffffffffffffffff168273ffffffffffffffffffffffffffffffffffffffff1603610b435760006040517f89c62b64000000000000000000000000000000000000000000000000000000008152600401610b3a9190612b39565b60405180910390fd5b600360008373ffffffffffffffffffffffffffffffffffffffff1673ffffffffffffffffffffffffffffffffffffffff168152602001908152602001600020549050919050565b610b9482336114db565b15610bd4576040517f08c379a0000000000000000000000000000000000000000000000000000000008152600401610bcb90613474565b60405180910390fd5b60096000838152602001908152602001600020339080600181540180825580915050600190039060005260206000200160009091909190916101000a81548173ffffffffffffffffffffffffffffffffffffffff021916908373ffffffffffffffffffffffffffffffffffffffff160217905550610c538233836115a6565b5050565b606060018054610c6690613206565b80601f0160208091040260200160405190810160405280929190818152602001828054610c9290613206565b8015610cdf5780601f10610cb457610100808354040283529160200191610cdf565b820191906000526020600020905b815481529060010190602001808311610cc257829003601f168201915b5050505050905090565b610cfb610cf461107a565b8383611a42565b5050565b610d0a848484610633565b610d1684848484611bb1565b50505050565b600b5481565b6060610d2d82610fb5565b506000600660008481526020019081526020016000208054610d4e90613206565b80601f0160208091040260200160405190810160405280929190818152602001828054610d7a90613206565b8015610dc75780601f10610d9c57610100808354040283529160200191610dc7565b820191906000526020600020905b815481529060010190602001808311610daa57829003601f168201915b505050505090506000610dd8611d68565b90506000815103610ded578192505050610e30565b600082511115610e22578082604051602001610e0a9291906134d0565b60405160208183030381529060405292505050610e30565b610e2b84611d7f565b925050505b919050565b6000600754905090565b6000600560008473ffffffffffffffffffffffffffffffffffffffff1673ffffffffffffffffffffffffffffffffffffffff16815260200190815260200160002060008373ffffffffffffffffffffffffffffffffffffffff1673ffffffffffffffffffffffffffffffffffffffff16815260200190815260200160002060009054906101000a900460ff16905092915050565b60007f80ac58cd000000000000000000000000000000000000000000000000000000007bffffffffffffffffffffffffffffffffffffffffffffffffffffffff1916827bffffffffffffffffffffffffffffffffffffffffffffffffffffffff19161480610f9e57507f5b5e139f000000000000000000000000000000000000000000000000000000007bffffffffffffffffffffffffffffffffffffffffffffffffffffffff1916827bffffffffffffffffffffffffffffffffffffffffffffffffffffffff1916145b80610fae5750610fad82611de8565b5b9050919050565b600080610fc1836112ae565b9050600073ffffffffffffffffffffffffffffffffffffffff168173ffffffffffffffffffffffffffffffffffffffff160361103457826040517f7e27328900000000000000000000000000000000000000000000000000000000815260040161102b91906130b4565b60405180910390fd5b80915050919050565b60006004600083815260200190815260200160002060009054906101000a900473ffffffffffffffffffffffffffffffffffffffff169050919050565b600033905090565b61108f8383836001611e52565b505050565b6000806110a0846112ae565b9050600073ffffffffffffffffffffffffffffffffffffffff168373ffffffffffffffffffffffffffffffffffffffff16146110e2576110e1818486612017565b5b600073ffffffffffffffffffffffffffffffffffffffff168173ffffffffffffffffffffffffffffffffffffffff161461117357611124600085600080611e52565b6001600360008373ffffffffffffffffffffffffffffffffffffffff1673ffffffffffffffffffffffffffffffffffffffff168152602001908152602001600020600082825403925050819055505b600073ffffffffffffffffffffffffffffffffffffffff168573ffffffffffffffffffffffffffffffffffffffff16146111f6576001600360008773ffffffffffffffffffffffffffffffffffffffff1673ffffffffffffffffffffffffffffffffffffffff168152602001908152602001600020600082825401925050819055505b846002600086815260200190815260200160002060006101000a81548173ffffffffffffffffffffffffffffffffffffffff021916908373ffffffffffffffffffffffffffffffffffffffff160217905550838573ffffffffffffffffffffffffffffffffffffffff168273ffffffffffffffffffffffffffffffffffffffff167fddf252ad1be2c89b69c2b068fc378daa952ba7f163c4a11628f55a4df523b3ef60405160405180910390a4809150509392505050565b60006002600083815260200190815260200160002060009054906101000a900473ffffffffffffffffffffffffffffffffffffffff169050919050565b60005b60096000838152602001908152602001600020805490508110156113825761137582600960008581526020019081526020016000208381548110611335576113346134f4565b5b9060005260206000200160009054906101000a900473ffffffffffffffffffffffffffffffffffffffff16604051806020016040528060008152506115a6565b80806001019150506112ee565b5050565b600073ffffffffffffffffffffffffffffffffffffffff168273ffffffffffffffffffffffffffffffffffffffff16036113f85760006040517f64a0ae920000000000000000000000000000000000000000000000000000000081526004016113ef9190612b39565b60405180910390fd5b600061140683836000611094565b9050600073ffffffffffffffffffffffffffffffffffffffff168173ffffffffffffffffffffffffffffffffffffffff161461147a5760006040517f73c6ac6e0000000000000000000000000000000000000000000000000000000081526004016114719190612b39565b60405180910390fd5b505050565b8060066000848152602001908152602001600020908161149f91906136cf565b507ff8e1a15aba9398e019f0b49df1a4fde98ee17ae345cb5f6b5e2c27f5033e8ce7826040516114cf91906130b4565b60405180910390a15050565b600080600090505b600960008581526020019081526020016000208054905081101561159a578273ffffffffffffffffffffffffffffffffffffffff1660096000868152602001908152602001600020828154811061153d5761153c6134f4565b5b9060005260206000200160009054906101000a900473ffffffffffffffffffffffffffffffffffffffff1673ffffffffffffffffffffffffffffffffffffffff160361158d5760019150506115a0565b80806001019150506114e3565b50600090505b92915050565b60086000848152602001908152602001600020600001546008600085815260200190815260200160002060010160009054906101000a900473ffffffffffffffffffffffffffffffffffffffff1673ffffffffffffffffffffffffffffffffffffffff1663dd62ed3e84306040518363ffffffff1660e01b815260040161162e9291906137a1565b602060405180830381865afa15801561164b573d6000803e3d6000fd5b505050506040513d601f19601f8201168201806040525081019061166f91906137df565b10611a3d5760086000848152602001908152602001600020600001546008600085815260200190815260200160002060010160009054906101000a900473ffffffffffffffffffffffffffffffffffffffff1673ffffffffffffffffffffffffffffffffffffffff166370a08231846040518263ffffffff1660e01b81526004016116fa9190612b39565b602060405180830381865afa158015611717573d6000803e3d6000fd5b505050506040513d601f19601f8201168201806040525081019061173b91906137df565b10611a3d576008600084815260200190815260200160002060020154600a600085815260200190815260200160002060008473ffffffffffffffffffffffffffffffffffffffff1673ffffffffffffffffffffffffffffffffffffffff16815260200190815260200160002054426117b3919061380c565b10611a3d576008600084815260200190815260200160002060010160009054906101000a900473ffffffffffffffffffffffffffffffffffffffff1673ffffffffffffffffffffffffffffffffffffffff166323b872dd833060086000888152602001908152602001600020600001546040518463ffffffff1660e01b815260040161184193929190613840565b6020604051808303816000875af1158015611860573d6000803e3d6000fd5b505050506040513d601f19601f820116820180604052508101906118849190613384565b5042600a600085815260200190815260200160002060008473ffffffffffffffffffffffffffffffffffffffff1673ffffffffffffffffffffffffffffffffffffffff1681526020019081526020016000208190555060086000848152602001908152602001600020600001546008600085815260200190815260200160002060030160008282546119169190613877565b925050819055506119256120db565b73ffffffffffffffffffffffffffffffffffffffff1663377af0da30600b546119ec6040518060400160405280601081526020017f70726f647563745f7061796d656e747300000000000000000000000000000000815250600b54604051806060016040528060308152602001613dba603091396119a28b6122db565b6119ab426122db565b6119bc6119b78d6123a9565b6123d6565b6119c58c6123d6565b6040516020016119d894939291906138d1565b6040516020818303038152906040526123ff565b6040518463ffffffff1660e01b8152600401611a0a9392919061393c565b600060405180830381600087803b158015611a2457600080fd5b505af1158015611a38573d6000803e3d6000fd5b505050505b505050565b600073ffffffffffffffffffffffffffffffffffffffff168273ffffffffffffffffffffffffffffffffffffffff1603611ab357816040517f5b08ba18000000000000000000000000000000000000000000000000000000008152600401611aaa9190612b39565b60405180910390fd5b80600560008573ffffffffffffffffffffffffffffffffffffffff1673ffffffffffffffffffffffffffffffffffffffff16815260200190815260200160002060008473ffffffffffffffffffffffffffffffffffffffff1673ffffffffffffffffffffffffffffffffffffffff16815260200190815260200160002060006101000a81548160ff0219169083151502179055508173ffffffffffffffffffffffffffffffffffffffff168373ffffffffffffffffffffffffffffffffffffffff167f17307eab39ab6107e8899845ad3d59bd9653f200f220920489ca2b5937696c3183604051611ba491906129c8565b60405180910390a3505050565b60008373ffffffffffffffffffffffffffffffffffffffff163b1115611d62578273ffffffffffffffffffffffffffffffffffffffff1663150b7a02611bf561107a565b8685856040518563ffffffff1660e01b8152600401611c1794939291906139cf565b6020604051808303816000875af1925050508015611c5357506040513d601f19601f82011682018060405250810190611c509190613a30565b60015b611cd7573d8060008114611c83576040519150601f19603f3d011682016040523d82523d6000602084013e611c88565b606091505b506000815103611ccf57836040517f64a0ae92000000000000000000000000000000000000000000000000000000008152600401611cc69190612b39565b60405180910390fd5b805181602001fd5b63150b7a0260e01b7bffffffffffffffffffffffffffffffffffffffffffffffffffffffff1916817bffffffffffffffffffffffffffffffffffffffffffffffffffffffff191614611d6057836040517f64a0ae92000000000000000000000000000000000000000000000000000000008152600401611d579190612b39565b60405180910390fd5b505b50505050565b606060405180602001604052806000815250905090565b6060611d8a82610fb5565b506000611d95611d68565b90506000815111611db55760405180602001604052806000815250611de0565b80611dbf846122db565b604051602001611dd09291906134d0565b6040516020818303038152906040525b915050919050565b60007f01ffc9a7000000000000000000000000000000000000000000000000000000007bffffffffffffffffffffffffffffffffffffffffffffffffffffffff1916827bffffffffffffffffffffffffffffffffffffffffffffffffffffffff1916149050919050565b8080611e8b5750600073ffffffffffffffffffffffffffffffffffffffff168273ffffffffffffffffffffffffffffffffffffffff1614155b15611fbf576000611e9b84610fb5565b9050600073ffffffffffffffffffffffffffffffffffffffff168373ffffffffffffffffffffffffffffffffffffffff1614158015611f0657508273ffffffffffffffffffffffffffffffffffffffff168173ffffffffffffffffffffffffffffffffffffffff1614155b8015611f195750611f178184610e3f565b155b15611f5b57826040517fa9fbf51f000000000000000000000000000000000000000000000000000000008152600401611f529190612b39565b60405180910390fd5b8115611fbd57838573ffffffffffffffffffffffffffffffffffffffff168273ffffffffffffffffffffffffffffffffffffffff167f8c5be1e5ebec7d5bd14f71427d1e84f3dd0314c0f7b2291e5b200ac8c7c3b92560405160405180910390a45b505b836004600085815260200190815260200160002060006101000a81548173ffffffffffffffffffffffffffffffffffffffff021916908373ffffffffffffffffffffffffffffffffffffffff16021790555050505050565b61202283838361243e565b6120d657600073ffffffffffffffffffffffffffffffffffffffff168373ffffffffffffffffffffffffffffffffffffffff160361209757806040517f7e27328900000000000000000000000000000000000000000000000000000000815260040161208e91906130b4565b60405180910390fd5b81816040517f177e802f0000000000000000000000000000000000000000000000000000000081526004016120cd929190613346565b60405180910390fd5b505050565b6000600146036121015773012969f7e3439a9b04025b5a049eb9bad82a8c1290506122d8565b600a46036121255773fad44bf5b843de943a09d4f3e84949a11d3aa3e690506122d8565b61a4b1460361214a57739abd75e8640871a5a20d3b4ee6330a04c962affd90506122d8565b61a4ba460361216f57731a22854c5b1642760a827f20137a67930ae108d290506122d8565b6089460361219357735c4e6a9e5c1e1bf445a062006faf19ea6c49afea90506122d8565b61013a46036121b8577359ef8bf2d6c102b4c42aef9189e1a9f0abfd652d90506122d8565b62aa36a746036121de5773c50c62498448acc8dbde43da77f8d5d2e2c7597d90506122d8565b62aa37dc4603612204577368a2f4423ad3bf5139db563cf3bc80aa09ed707990506122d8565b62066eee460361222a5773223a74b8323914afdc3ff1e5005564dc17231d6e90506122d8565b62013881460361225057734b48841d4b32c4650e4abc117a03fe8b51f38f6890506122d8565b6204cb2f46036122765773030bcf3d50cad04c2e57391b12740982a930862190506122d8565b617a69460361229b5773e7f1725e7734ce288f8367e1bb143e90bb3f051290506122d8565b466040517f264e42cf0000000000000000000000000000000000000000000000000000000081526004016122cf91906130b4565b60405180910390fd5b90565b6060600060016122ea846124ff565b01905060008167ffffffffffffffff81111561230957612308612c58565b5b6040519080825280601f01601f19166020018201604052801561233b5781602001600182028036833780820191505090505b509050600082602001820190505b60011561239e578080600190039150507f3031323334353637383961626364656600000000000000000000000000000000600a86061a8153600a858161239257612391613a5d565b5b04945060008503612349575b819350505050919050565b60606123cf8273ffffffffffffffffffffffffffffffffffffffff16601460ff16612652565b9050919050565b6060816040516020016123e99190613ad8565b6040516020818303038152906040529050919050565b6060600061240d8686612898565b905080848460405160200161242493929190613c35565b604051602081830303815290604052915050949350505050565b60008073ffffffffffffffffffffffffffffffffffffffff168373ffffffffffffffffffffffffffffffffffffffff16141580156124f657508273ffffffffffffffffffffffffffffffffffffffff168473ffffffffffffffffffffffffffffffffffffffff1614806124b757506124b68484610e3f565b5b806124f557508273ffffffffffffffffffffffffffffffffffffffff166124dd8361103d565b73ffffffffffffffffffffffffffffffffffffffff16145b5b90509392505050565b600080600090507a184f03e93ff9f4daa797ed6e38ed64bf6a1f010000000000000000831061255d577a184f03e93ff9f4daa797ed6e38ed64bf6a1f010000000000000000838161255357612552613a5d565b5b0492506040810190505b6d04ee2d6d415b85acef8100000000831061259a576d04ee2d6d415b85acef810000000083816125905761258f613a5d565b5b0492506020810190505b662386f26fc1000083106125c957662386f26fc1000083816125bf576125be613a5d565b5b0492506010810190505b6305f5e10083106125f2576305f5e10083816125e8576125e7613a5d565b5b0492506008810190505b612710831061261757612710838161260d5761260c613a5d565b5b0492506004810190505b6064831061263a57606483816126305761262f613a5d565b5b0492506002810190505b600a8310612649576001810190505b80915050919050565b606060008390506000600284600261266a9190613c92565b6126749190613877565b67ffffffffffffffff81111561268d5761268c612c58565b5b6040519080825280601f01601f1916602001820160405280156126bf5781602001600182028036833780820191505090505b5090507f3000000000000000000000000000000000000000000000000000000000000000816000815181106126f7576126f66134f4565b5b60200101907effffffffffffffffffffffffffffffffffffffffffffffffffffffffffffff1916908160001a9053507f78000000000000000000000000000000000000000000000000000000000000008160018151811061275b5761275a6134f4565b5b60200101907effffffffffffffffffffffffffffffffffffffffffffffffffffffffffffff1916908160001a9053506000600185600261279b9190613c92565b6127a59190613877565b90505b6001811115612845577f3031323334353637383961626364656600000000000000000000000000000000600f8416601081106127e7576127e66134f4565b5b1a60f81b8282815181106127fe576127fd6134f4565b5b60200101907effffffffffffffffffffffffffffffffffffffffffffffffffffffffffffff1916908160001a905350600483901c92508061283e90613cd4565b90506127a8565b506000821461288d5784846040517fe22e27eb000000000000000000000000000000000000000000000000000000008152600401612884929190613cfd565b60405180910390fd5b809250505092915050565b6060826128a4466122db565b6128ad846122db565b6040516020016128bf93929190613d72565b604051602081830303815290604052905092915050565b604051806080016040528060008152602001600073ffffffffffffffffffffffffffffffffffffffff16815260200160008152602001600081525090565b6000604051905090565b600080fd5b600080fd5b60007fffffffff0000000000000000000000000000000000000000000000000000000082169050919050565b61295d81612928565b811461296857600080fd5b50565b60008135905061297a81612954565b92915050565b6000602082840312156129965761299561291e565b5b60006129a48482850161296b565b91505092915050565b60008115159050919050565b6129c2816129ad565b82525050565b60006020820190506129dd60008301846129b9565b92915050565b600081519050919050565b600082825260208201905092915050565b60005b83811015612a1d578082015181840152602081019050612a02565b60008484015250505050565b6000601f19601f8301169050919050565b6000612a45826129e3565b612a4f81856129ee565b9350612a5f8185602086016129ff565b612a6881612a29565b840191505092915050565b60006020820190508181036000830152612a8d8184612a3a565b905092915050565b6000819050919050565b612aa881612a95565b8114612ab357600080fd5b50565b600081359050612ac581612a9f565b92915050565b600060208284031215612ae157612ae061291e565b5b6000612aef84828501612ab6565b91505092915050565b600073ffffffffffffffffffffffffffffffffffffffff82169050919050565b6000612b2382612af8565b9050919050565b612b3381612b18565b82525050565b6000602082019050612b4e6000830184612b2a565b92915050565b612b5d81612a95565b82525050565b612b6c81612b18565b82525050565b608082016000820151612b886000850182612b54565b506020820151612b9b6020850182612b63565b506040820151612bae6040850182612b54565b506060820151612bc16060850182612b54565b50505050565b6000608082019050612bdc6000830184612b72565b92915050565b612beb81612b18565b8114612bf657600080fd5b50565b600081359050612c0881612be2565b92915050565b60008060408385031215612c2557612c2461291e565b5b6000612c3385828601612bf9565b9250506020612c4485828601612ab6565b9150509250929050565b600080fd5b600080fd5b7f4e487b7100000000000000000000000000000000000000000000000000000000600052604160045260246000fd5b612c9082612a29565b810181811067ffffffffffffffff82111715612caf57612cae612c58565b5b80604052505050565b6000612cc2612914565b9050612cce8282612c87565b919050565b600067ffffffffffffffff821115612cee57612ced612c58565b5b612cf782612a29565b9050602081019050919050565b82818337600083830152505050565b6000612d26612d2184612cd3565b612cb8565b905082815260208101848484011115612d4257612d41612c53565b5b612d4d848285612d04565b509392505050565b600082601f830112612d6a57612d69612c4e565b5b8135612d7a848260208601612d13565b91505092915050565b60008060008060808587031215612d9d57612d9c61291e565b5b6000612dab87828801612bf9565b9450506020612dbc87828801612bf9565b9350506040612dcd87828801612ab6565b925050606085013567ffffffffffffffff811115612dee57612ded612923565b5b612dfa87828801612d55565b91505092959194509250565b612e0f81612928565b82525050565b6000602082019050612e2a6000830184612e06565b92915050565b600080600060608486031215612e4957612e4861291e565b5b6000612e5786828701612bf9565b9350506020612e6886828701612bf9565b9250506040612e7986828701612ab6565b9150509250925092565b600081519050919050565b600082825260208201905092915050565b6000819050602082019050919050565b6000612ebb8383612b63565b60208301905092915050565b6000602082019050919050565b6000612edf82612e83565b612ee98185612e8e565b9350612ef483612e9f565b8060005b83811015612f25578151612f0c8882612eaf565b9750612f1783612ec7565b925050600181019050612ef8565b5085935050505092915050565b60006020820190508181036000830152612f4c8184612ed4565b905092915050565b600067ffffffffffffffff821115612f6f57612f6e612c58565b5b612f7882612a29565b9050602081019050919050565b6000612f98612f9384612f54565b612cb8565b905082815260208101848484011115612fb457612fb3612c53565b5b612fbf848285612d04565b509392505050565b600082601f830112612fdc57612fdb612c4e565b5b8135612fec848260208601612f85565b91505092915050565b6000806000806080858703121561300f5761300e61291e565b5b600061301d87828801612ab6565b945050602061302e87828801612bf9565b935050604061303f87828801612ab6565b925050606085013567ffffffffffffffff8111156130605761305f612923565b5b61306c87828801612fc7565b91505092959194509250565b60006020828403121561308e5761308d61291e565b5b600061309c84828501612bf9565b91505092915050565b6130ae81612a95565b82525050565b60006020820190506130c960008301846130a5565b92915050565b600080604083850312156130e6576130e561291e565b5b60006130f485828601612ab6565b925050602083013567ffffffffffffffff81111561311557613114612923565b5b61312185828601612fc7565b9150509250929050565b613134816129ad565b811461313f57600080fd5b50565b6000813590506131518161312b565b92915050565b6000806040838503121561316e5761316d61291e565b5b600061317c85828601612bf9565b925050602061318d85828601613142565b9150509250929050565b600080604083850312156131ae576131ad61291e565b5b60006131bc85828601612bf9565b92505060206131cd85828601612bf9565b9150509250929050565b7f4e487b7100000000000000000000000000000000000000000000000000000000600052602260045260246000fd5b6000600282049050600182168061321e57607f821691505b602082108103613231576132306131d7565b5b50919050565b600060608201905061324c6000830186612b2a565b61325960208301856130a5565b6132666040830184612b2a565b949350505050565b7f4e6f74206f776e65720000000000000000000000000000000000000000000000600082015250565b60006132a46009836129ee565b91506132af8261326e565b602082019050919050565b600060208201905081810360008301526132d381613297565b9050919050565b7f42616c616e6365206973207a65726f0000000000000000000000000000000000600082015250565b6000613310600f836129ee565b915061331b826132da565b602082019050919050565b6000602082019050818103600083015261333f81613303565b9050919050565b600060408201905061335b6000830185612b2a565b61336860208301846130a5565b9392505050565b60008151905061337e8161312b565b92915050565b60006020828403121561339a5761339961291e565b5b60006133a88482850161336f565b91505092915050565b7f4e487b7100000000000000000000000000000000000000000000000000000000600052601160045260246000fd5b60006133eb82612a95565b91507fffffffffffffffffffffffffffffffffffffffffffffffffffffffffffffffff820361341d5761341c6133b1565b5b600182019050919050565b7f416c726561647920737562736372696265640000000000000000000000000000600082015250565b600061345e6012836129ee565b915061346982613428565b602082019050919050565b6000602082019050818103600083015261348d81613451565b9050919050565b600081905092915050565b60006134aa826129e3565b6134b48185613494565b93506134c48185602086016129ff565b80840191505092915050565b60006134dc828561349f565b91506134e8828461349f565b91508190509392505050565b7f4e487b7100000000000000000000000000000000000000000000000000000000600052603260045260246000fd5b60008190508160005260206000209050919050565b60006020601f8301049050919050565b600082821b905092915050565b6000600883026135857fffffffffffffffffffffffffffffffffffffffffffffffffffffffffffffffff82613548565b61358f8683613548565b95508019841693508086168417925050509392505050565b6000819050919050565b60006135cc6135c76135c284612a95565b6135a7565b612a95565b9050919050565b6000819050919050565b6135e6836135b1565b6135fa6135f2826135d3565b848454613555565b825550505050565b600090565b61360f613602565b61361a8184846135dd565b505050565b5b8181101561363e57613633600082613607565b600181019050613620565b5050565b601f8211156136835761365481613523565b61365d84613538565b8101602085101561366c578190505b61368061367885613538565b83018261361f565b50505b505050565b600082821c905092915050565b60006136a660001984600802613688565b1980831691505092915050565b60006136bf8383613695565b9150826002028217905092915050565b6136d8826129e3565b67ffffffffffffffff8111156136f1576136f0612c58565b5b6136fb8254613206565b613706828285613642565b600060209050601f8311600181146137395760008415613727578287015190505b61373185826136b3565b865550613799565b601f19841661374786613523565b60005b8281101561376f5784890151825560018201915060208501945060208101905061374a565b8683101561378c5784890151613788601f891682613695565b8355505b6001600288020188555050505b505050505050565b60006040820190506137b66000830185612b2a565b6137c36020830184612b2a565b9392505050565b6000815190506137d981612a9f565b92915050565b6000602082840312156137f5576137f461291e565b5b6000613803848285016137ca565b91505092915050565b600061381782612a95565b915061382283612a95565b925082820390508181111561383a576138396133b1565b5b92915050565b60006060820190506138556000830186612b2a565b6138626020830185612b2a565b61386f60408301846130a5565b949350505050565b600061388282612a95565b915061388d83612a95565b92508282019050808211156138a5576138a46133b1565b5b92915050565b7f2c00000000000000000000000000000000000000000000000000000000000000815250565b60006138dd828761349f565b91506138e8826138ab565b6001820191506138f8828661349f565b9150613903826138ab565b600182019150613913828561349f565b915061391e826138ab565b60018201915061392e828461349f565b915081905095945050505050565b60006060820190506139516000830186612b2a565b61395e60208301856130a5565b81810360408301526139708184612a3a565b9050949350505050565b600081519050919050565b600082825260208201905092915050565b60006139a18261397a565b6139ab8185613985565b93506139bb8185602086016129ff565b6139c481612a29565b840191505092915050565b60006080820190506139e46000830187612b2a565b6139f16020830186612b2a565b6139fe60408301856130a5565b8181036060830152613a108184613996565b905095945050505050565b600081519050613a2a81612954565b92915050565b600060208284031215613a4657613a4561291e565b5b6000613a5484828501613a1b565b91505092915050565b7f4e487b7100000000000000000000000000000000000000000000000000000000600052601260045260246000fd5b7f2700000000000000000000000000000000000000000000000000000000000000600082015250565b6000613ac2600183613494565b9150613acd82613a8c565b600182019050919050565b6000613ae382613ab5565b9150613aef828461349f565b9150613afa82613ab5565b915081905092915050565b7f494e5345525420494e544f200000000000000000000000000000000000000000600082015250565b6000613b3b600c83613494565b9150613b4682613b05565b600c82019050919050565b7f2800000000000000000000000000000000000000000000000000000000000000600082015250565b6000613b87600183613494565b9150613b9282613b51565b600182019050919050565b7f2956414c55455328000000000000000000000000000000000000000000000000600082015250565b6000613bd3600883613494565b9150613bde82613b9d565b600882019050919050565b7f2900000000000000000000000000000000000000000000000000000000000000600082015250565b6000613c1f600183613494565b9150613c2a82613be9565b600182019050919050565b6000613c4082613b2e565b9150613c4c828661349f565b9150613c5782613b7a565b9150613c63828561349f565b9150613c6e82613bc6565b9150613c7a828461349f565b9150613c8582613c12565b9150819050949350505050565b6000613c9d82612a95565b9150613ca883612a95565b9250828202613cb681612a95565b91508282048414831517613ccd57613ccc6133b1565b5b5092915050565b6000613cdf82612a95565b915060008203613cf257613cf16133b1565b5b600182039050919050565b6000604082019050613d1260008301856130a5565b613d1f60208301846130a5565b9392505050565b7f5f00000000000000000000000000000000000000000000000000000000000000600082015250565b6000613d5c600183613494565b9150613d6782613d26565b600182019050919050565b6000613d7e828661349f565b9150613d8982613d4f565b9150613d95828561349f565b9150613da082613d4f565b9150613dac828461349f565b915081905094935050505056fe70726f647563742c646174652c737562736372696265725f616464726573732c737562736372696265725f656d61696ca26469706673582212201ca011843813e6cd587395058045bb05810241f603fbe6ea77d977905e67eb8964736f6c63430008180033696420696e7465676572207072696d617279206b65792c70726f6475637420696e74656765722c6461746520696e74656765722c737562736372696265725f6164647265737320746578742c737562736372696265725f656d61696c2074657874",
  "linkReferences": {},
  "deployedLinkReferences": {}
}