{
  "_format": "hh-sol-artifact-1",
  "contractName": "Product",
  "sourceName": "contracts/Product.sol",
  "abi": [
    {
      "inputs": [],
      "stateMutability": "nonpayable",
      "type": "constructor"
    },
    {
      "inputs": [
        {
          "internalType": "address",
          "name": "sender",
          "type": "address"
        },
        {
          "internalType": "uint256",
          "name": "tokenId",
          "type": "uint256"
        },
        {
          "internalType": "address",
          "name": "owner",
          "type": "address"
        }
      ],
      "name": "ERC721IncorrectOwner",
      "type": "error"
    },
    {
      "inputs": [
        {
          "internalType": "address",
          "name": "operator",
          "type": "address"
        },
        {
          "internalType": "uint256",
          "name": "tokenId",
          "type": "uint256"
        }
      ],
      "name": "ERC721InsufficientApproval",
      "type": "error"
    },
    {
      "inputs": [
        {
          "internalType": "address",
          "name": "approver",
          "type": "address"
        }
      ],
      "name": "ERC721InvalidApprover",
      "type": "error"
    },
    {
      "inputs": [
        {
          "internalType": "address",
          "name": "operator",
          "type": "address"
        }
      ],
      "name": "ERC721InvalidOperator",
      "type": "error"
    },
    {
      "inputs": [
        {
          "internalType": "address",
          "name": "owner",
          "type": "address"
        }
      ],
      "name": "ERC721InvalidOwner",
      "type": "error"
    },
    {
      "inputs": [
        {
          "internalType": "address",
          "name": "receiver",
          "type": "address"
        }
      ],
      "name": "ERC721InvalidReceiver",
      "type": "error"
    },
    {
      "inputs": [
        {
          "internalType": "address",
          "name": "sender",
          "type": "address"
        }
      ],
      "name": "ERC721InvalidSender",
      "type": "error"
    },
    {
      "inputs": [
        {
          "internalType": "uint256",
          "name": "tokenId",
          "type": "uint256"
        }
      ],
      "name": "ERC721NonexistentToken",
      "type": "error"
    },
    {
      "anonymous": false,
      "inputs": [
        {
          "indexed": true,
          "internalType": "address",
          "name": "owner",
          "type": "address"
        },
        {
          "indexed": true,
          "internalType": "address",
          "name": "approved",
          "type": "address"
        },
        {
          "indexed": true,
          "internalType": "uint256",
          "name": "tokenId",
          "type": "uint256"
        }
      ],
      "name": "Approval",
      "type": "event"
    },
    {
      "anonymous": false,
      "inputs": [
        {
          "indexed": true,
          "internalType": "address",
          "name": "owner",
          "type": "address"
        },
        {
          "indexed": true,
          "internalType": "address",
          "name": "operator",
          "type": "address"
        },
        {
          "indexed": false,
          "internalType": "bool",
          "name": "approved",
          "type": "bool"
        }
      ],
      "name": "ApprovalForAll",
      "type": "event"
    },
    {
      "anonymous": false,
      "inputs": [
        {
          "indexed": false,
          "internalType": "uint256",
          "name": "_fromTokenId",
          "type": "uint256"
        },
        {
          "indexed": false,
          "internalType": "uint256",
          "name": "_toTokenId",
          "type": "uint256"
        }
      ],
      "name": "BatchMetadataUpdate",
      "type": "event"
    },
    {
      "anonymous": false,
      "inputs": [
        {
          "indexed": false,
          "internalType": "uint256",
          "name": "_tokenId",
          "type": "uint256"
        }
      ],
      "name": "MetadataUpdate",
      "type": "event"
    },
    {
      "anonymous": false,
      "inputs": [
        {
          "indexed": true,
          "internalType": "address",
          "name": "from",
          "type": "address"
        },
        {
          "indexed": true,
          "internalType": "address",
          "name": "to",
          "type": "address"
        },
        {
          "indexed": true,
          "internalType": "uint256",
          "name": "tokenId",
          "type": "uint256"
        }
      ],
      "name": "Transfer",
      "type": "event"
    },
    {
      "inputs": [
        {
          "internalType": "address",
          "name": "to",
          "type": "address"
        },
        {
          "internalType": "uint256",
          "name": "tokenId",
          "type": "uint256"
        }
      ],
      "name": "approve",
      "outputs": [],
      "stateMutability": "nonpayable",
      "type": "function"
    },
    {
      "inputs": [
        {
          "internalType": "address",
          "name": "owner",
          "type": "address"
        }
      ],
      "name": "balanceOf",
      "outputs": [
        {
          "internalType": "uint256",
          "name": "",
          "type": "uint256"
        }
      ],
      "stateMutability": "view",
      "type": "function"
    },
    {
      "inputs": [
        {
          "internalType": "uint256",
          "name": "subscriptionCost",
          "type": "uint256"
        },
        {
          "internalType": "address",
          "name": "subscriptionToken",
          "type": "address"
        },
        {
          "internalType": "uint256",
          "name": "subscriptionPeriod",
          "type": "uint256"
        },
        {
          "internalType": "string",
          "name": "tokenURI",
          "type": "string"
        }
      ],
      "name": "create",
      "outputs": [],
      "stateMutability": "nonpayable",
      "type": "function"
    },
    {
      "inputs": [
        {
          "internalType": "uint256",
          "name": "tokenId",
          "type": "uint256"
        }
      ],
      "name": "getApproved",
      "outputs": [
        {
          "internalType": "address",
          "name": "",
          "type": "address"
        }
      ],
      "stateMutability": "view",
      "type": "function"
    },
    {
      "inputs": [],
      "name": "getNextTokenId",
      "outputs": [
        {
          "internalType": "uint256",
          "name": "nextTokenId",
          "type": "uint256"
        }
      ],
      "stateMutability": "view",
      "type": "function"
    },
    {
      "inputs": [
        {
          "internalType": "uint256",
          "name": "tokenId",
          "type": "uint256"
        }
      ],
      "name": "getParams",
      "outputs": [
        {
          "components": [
            {
              "internalType": "uint256",
              "name": "subscriptionCost",
              "type": "uint256"
            },
            {
              "internalType": "address",
              "name": "subscriptionToken",
              "type": "address"
            },
            {
              "internalType": "uint256",
              "name": "subscriptionPeriod",
              "type": "uint256"
            },
            {
              "internalType": "uint256",
              "name": "balance",
              "type": "uint256"
            }
          ],
          "internalType": "struct Product.Params",
          "name": "params",
          "type": "tuple"
        }
      ],
      "stateMutability": "view",
      "type": "function"
    },
    {
      "inputs": [
        {
          "internalType": "uint256",
          "name": "tokenId",
          "type": "uint256"
        }
      ],
      "name": "getSubscribers",
      "outputs": [
        {
          "internalType": "address[]",
          "name": "subscribers",
          "type": "address[]"
        }
      ],
      "stateMutability": "view",
      "type": "function"
    },
    {
      "inputs": [
        {
          "internalType": "address",
          "name": "owner",
          "type": "address"
        },
        {
          "internalType": "address",
          "name": "operator",
          "type": "address"
        }
      ],
      "name": "isApprovedForAll",
      "outputs": [
        {
          "internalType": "bool",
          "name": "",
          "type": "bool"
        }
      ],
      "stateMutability": "view",
      "type": "function"
    },
    {
      "inputs": [],
      "name": "name",
      "outputs": [
        {
          "internalType": "string",
          "name": "",
          "type": "string"
        }
      ],
      "stateMutability": "view",
      "type": "function"
    },
    {
      "inputs": [
        {
          "internalType": "uint256",
          "name": "tokenId",
          "type": "uint256"
        }
      ],
      "name": "ownerOf",
      "outputs": [
        {
          "internalType": "address",
          "name": "",
          "type": "address"
        }
      ],
      "stateMutability": "view",
      "type": "function"
    },
    {
      "inputs": [],
      "name": "processSubscribers",
      "outputs": [],
      "stateMutability": "nonpayable",
      "type": "function"
    },
    {
      "inputs": [
        {
          "internalType": "address",
          "name": "from",
          "type": "address"
        },
        {
          "internalType": "address",
          "name": "to",
          "type": "address"
        },
        {
          "internalType": "uint256",
          "name": "tokenId",
          "type": "uint256"
        }
      ],
      "name": "safeTransferFrom",
      "outputs": [],
      "stateMutability": "nonpayable",
      "type": "function"
    },
    {
      "inputs": [
        {
          "internalType": "address",
          "name": "from",
          "type": "address"
        },
        {
          "internalType": "address",
          "name": "to",
          "type": "address"
        },
        {
          "internalType": "uint256",
          "name": "tokenId",
          "type": "uint256"
        },
        {
          "internalType": "bytes",
          "name": "data",
          "type": "bytes"
        }
      ],
      "name": "safeTransferFrom",
      "outputs": [],
      "stateMutability": "nonpayable",
      "type": "function"
    },
    {
      "inputs": [
        {
          "internalType": "address",
          "name": "operator",
          "type": "address"
        },
        {
          "internalType": "bool",
          "name": "approved",
          "type": "bool"
        }
      ],
      "name": "setApprovalForAll",
      "outputs": [],
      "stateMutability": "nonpayable",
      "type": "function"
    },
    {
      "inputs": [
        {
          "internalType": "uint256",
          "name": "tokenId",
          "type": "uint256"
        }
      ],
      "name": "subscribe",
      "outputs": [],
      "stateMutability": "nonpayable",
      "type": "function"
    },
    {
      "inputs": [
        {
          "internalType": "bytes4",
          "name": "interfaceId",
          "type": "bytes4"
        }
      ],
      "name": "supportsInterface",
      "outputs": [
        {
          "internalType": "bool",
          "name": "",
          "type": "bool"
        }
      ],
      "stateMutability": "view",
      "type": "function"
    },
    {
      "inputs": [],
      "name": "symbol",
      "outputs": [
        {
          "internalType": "string",
          "name": "",
          "type": "string"
        }
      ],
      "stateMutability": "view",
      "type": "function"
    },
    {
      "inputs": [
        {
          "internalType": "uint256",
          "name": "tokenId",
          "type": "uint256"
        }
      ],
      "name": "tokenURI",
      "outputs": [
        {
          "internalType": "string",
          "name": "",
          "type": "string"
        }
      ],
      "stateMutability": "view",
      "type": "function"
    },
    {
      "inputs": [
        {
          "internalType": "address",
          "name": "from",
          "type": "address"
        },
        {
          "internalType": "address",
          "name": "to",
          "type": "address"
        },
        {
          "internalType": "uint256",
          "name": "tokenId",
          "type": "uint256"
        }
      ],
      "name": "transferFrom",
      "outputs": [],
      "stateMutability": "nonpayable",
      "type": "function"
    },
    {
      "inputs": [
        {
          "internalType": "uint256",
          "name": "tokenId",
          "type": "uint256"
        }
      ],
      "name": "withdraw",
      "outputs": [],
      "stateMutability": "nonpayable",
      "type": "function"
    }
  ],
  "bytecode": "0x60806040523480156200001157600080fd5b506040518060400160405280601e81526020017f43727970746f20537562736372697074696f6e73202d2050726f6475637400008152506040518060400160405280600381526020017f435350000000000000000000000000000000000000000000000000000000000081525081600090816200008f919062000324565b508060019081620000a1919062000324565b5050506200040b565b600081519050919050565b7f4e487b7100000000000000000000000000000000000000000000000000000000600052604160045260246000fd5b7f4e487b7100000000000000000000000000000000000000000000000000000000600052602260045260246000fd5b600060028204905060018216806200012c57607f821691505b602082108103620001425762000141620000e4565b5b50919050565b60008190508160005260206000209050919050565b60006020601f8301049050919050565b600082821b905092915050565b600060088302620001ac7fffffffffffffffffffffffffffffffffffffffffffffffffffffffffffffffff826200016d565b620001b886836200016d565b95508019841693508086168417925050509392505050565b6000819050919050565b6000819050919050565b600062000205620001ff620001f984620001d0565b620001da565b620001d0565b9050919050565b6000819050919050565b6200022183620001e4565b6200023962000230826200020c565b8484546200017a565b825550505050565b600090565b6200025062000241565b6200025d81848462000216565b505050565b5b8181101562000285576200027960008262000246565b60018101905062000263565b5050565b601f821115620002d4576200029e8162000148565b620002a9846200015d565b81016020851015620002b9578190505b620002d1620002c8856200015d565b83018262000262565b50505b505050565b600082821c905092915050565b6000620002f960001984600802620002d9565b1980831691505092915050565b6000620003148383620002e6565b9150826002028217905092915050565b6200032f82620000aa565b67ffffffffffffffff8111156200034b576200034a620000b5565b5b62000357825462000113565b6200036482828562000289565b600060209050601f8311600181146200039c576000841562000387578287015190505b62000393858262000306565b86555062000403565b601f198416620003ac8662000148565b60005b82811015620003d657848901518255600182019150602085019450602081019050620003af565b86831015620003f65784890151620003f2601f891682620002e6565b8355505b6001600288020188555050505b505050505050565b6132a4806200041b6000396000f3fe608060405234801561001057600080fd5b506004361061012c5760003560e01c8063628f13d3116100ad578063a22cb46511610071578063a22cb4651461033f578063b88d4fde1461035b578063c87b56dd14610377578063caa0f92a146103a7578063e985e9c5146103c55761012c565b8063628f13d31461029b5780636352211e146102a55780636722bbba146102d557806370a08231146102f157806395d89b41146103215761012c565b80630f574ba7116100f45780630f574ba7146101fb57806323b872dd146102175780632e1a7d4d146102335780633b6058151461024f57806342842e0e1461027f5761012c565b806301ffc9a71461013157806306fdde0314610161578063081812fc1461017f57806308a4f072146101af578063095ea7b3146101df575b600080fd5b61014b600480360381019061014691906122b7565b6103f5565b60405161015891906122ff565b60405180910390f35b610169610456565b60405161017691906123aa565b60405180910390f35b61019960048036038101906101949190612402565b6104e8565b6040516101a69190612470565b60405180910390f35b6101c960048036038101906101c49190612402565b610504565b6040516101d691906124fe565b60405180910390f35b6101f960048036038101906101f49190612545565b6105a5565b005b61021560048036038101906102109190612402565b6105bb565b005b610231600480360381019061022c9190612585565b610686565b005b61024d60048036038101906102489190612402565b610788565b005b61026960048036038101906102649190612402565b610941565b6040516102769190612687565b60405180910390f35b61029960048036038101906102949190612585565b6109e2565b005b6102a3610a02565b005b6102bf60048036038101906102ba9190612402565b610a28565b6040516102cc9190612470565b60405180910390f35b6102ef60048036038101906102ea91906127de565b610a3a565b005b61030b60048036038101906103069190612861565b610b23565b604051610318919061289d565b60405180910390f35b610329610bdd565b60405161033691906123aa565b60405180910390f35b610359600480360381019061035491906128e4565b610c6f565b005b610375600480360381019061037091906129c5565b610c85565b005b610391600480360381019061038c9190612402565b610ca2565b60405161039e91906123aa565b60405180910390f35b6103af610db5565b6040516103bc919061289d565b60405180910390f35b6103df60048036038101906103da9190612a48565b610dbf565b6040516103ec91906122ff565b60405180910390f35b6000634906490660e01b7bffffffffffffffffffffffffffffffffffffffffffffffffffffffff1916827bffffffffffffffffffffffffffffffffffffffffffffffffffffffff1916148061044f575061044e82610e53565b5b9050919050565b60606000805461046590612ab7565b80601f016020809104026020016040519081016040528092919081815260200182805461049190612ab7565b80156104de5780601f106104b3576101008083540402835291602001916104de565b820191906000526020600020905b8154815290600101906020018083116104c157829003601f168201915b5050505050905090565b60006104f382610f35565b506104fd82610fbd565b9050919050565b61050c61220d565b60086000838152602001908152602001600020604051806080016040529081600082015481526020016001820160009054906101000a900473ffffffffffffffffffffffffffffffffffffffff1673ffffffffffffffffffffffffffffffffffffffff1673ffffffffffffffffffffffffffffffffffffffff168152602001600282015481526020016003820154815250509050919050565b6105b782826105b2610ffa565b611002565b5050565b6105c58133611014565b15610605576040517f08c379a00000000000000000000000000000000000000000000000000000000081526004016105fc90612b34565b60405180910390fd5b60096000828152602001908152602001600020339080600181540180825580915050600190039060005260206000200160009091909190916101000a81548173ffffffffffffffffffffffffffffffffffffffff021916908373ffffffffffffffffffffffffffffffffffffffff16021790555061068381336110df565b50565b600073ffffffffffffffffffffffffffffffffffffffff168273ffffffffffffffffffffffffffffffffffffffff16036106f85760006040517f64a0ae920000000000000000000000000000000000000000000000000000000081526004016106ef9190612470565b60405180910390fd5b600061070c8383610707610ffa565b61145b565b90508373ffffffffffffffffffffffffffffffffffffffff168173ffffffffffffffffffffffffffffffffffffffff1614610782578382826040517f64283d7b00000000000000000000000000000000000000000000000000000000815260040161077993929190612b54565b60405180910390fd5b50505050565b3373ffffffffffffffffffffffffffffffffffffffff166107a882611675565b73ffffffffffffffffffffffffffffffffffffffff16146107fe576040517f08c379a00000000000000000000000000000000000000000000000000000000081526004016107f590612bd7565b60405180910390fd5b6000600860008381526020019081526020016000206003015411610857576040517f08c379a000000000000000000000000000000000000000000000000000000000815260040161084e90612c43565b60405180910390fd5b6008600082815260200190815260200160002060010160009054906101000a900473ffffffffffffffffffffffffffffffffffffffff1673ffffffffffffffffffffffffffffffffffffffff1663a9059cbb3360086000858152602001908152602001600020600301546040518363ffffffff1660e01b81526004016108de929190612c63565b6020604051808303816000875af11580156108fd573d6000803e3d6000fd5b505050506040513d601f19601f820116820180604052508101906109219190612ca1565b506000600860008381526020019081526020016000206003018190555050565b6060600960008381526020019081526020016000208054806020026020016040519081016040528092919081815260200182805480156109d657602002820191906000526020600020905b8160009054906101000a900473ffffffffffffffffffffffffffffffffffffffff1673ffffffffffffffffffffffffffffffffffffffff168152602001906001019080831161098c575b50505050509050919050565b6109fd83838360405180602001604052806000815250610c85565b505050565b60005b600754811015610a2557610a18816116b2565b8080600101915050610a05565b50565b6000610a3382610f35565b9050919050565b600060076000815480929190610a4f90612cfd565b919050559050610a5f338261173d565b610a698183611836565b60405180608001604052808681526020018573ffffffffffffffffffffffffffffffffffffffff1681526020018481526020016000815250600860008381526020019081526020016000206000820151816000015560208201518160010160006101000a81548173ffffffffffffffffffffffffffffffffffffffff021916908373ffffffffffffffffffffffffffffffffffffffff16021790555060408201518160020155606082015181600301559050505050505050565b60008073ffffffffffffffffffffffffffffffffffffffff168273ffffffffffffffffffffffffffffffffffffffff1603610b965760006040517f89c62b64000000000000000000000000000000000000000000000000000000008152600401610b8d9190612470565b60405180910390fd5b600360008373ffffffffffffffffffffffffffffffffffffffff1673ffffffffffffffffffffffffffffffffffffffff168152602001908152602001600020549050919050565b606060018054610bec90612ab7565b80601f0160208091040260200160405190810160405280929190818152602001828054610c1890612ab7565b8015610c655780601f10610c3a57610100808354040283529160200191610c65565b820191906000526020600020905b815481529060010190602001808311610c4857829003601f168201915b5050505050905090565b610c81610c7a610ffa565b8383611892565b5050565b610c90848484610686565b610c9c84848484611a01565b50505050565b6060610cad82610f35565b506000600660008481526020019081526020016000208054610cce90612ab7565b80601f0160208091040260200160405190810160405280929190818152602001828054610cfa90612ab7565b8015610d475780601f10610d1c57610100808354040283529160200191610d47565b820191906000526020600020905b815481529060010190602001808311610d2a57829003601f168201915b505050505090506000610d58611bb8565b90506000815103610d6d578192505050610db0565b600082511115610da2578082604051602001610d8a929190612d81565b60405160208183030381529060405292505050610db0565b610dab84611bcf565b925050505b919050565b6000600754905090565b6000600560008473ffffffffffffffffffffffffffffffffffffffff1673ffffffffffffffffffffffffffffffffffffffff16815260200190815260200160002060008373ffffffffffffffffffffffffffffffffffffffff1673ffffffffffffffffffffffffffffffffffffffff16815260200190815260200160002060009054906101000a900460ff16905092915050565b60007f80ac58cd000000000000000000000000000000000000000000000000000000007bffffffffffffffffffffffffffffffffffffffffffffffffffffffff1916827bffffffffffffffffffffffffffffffffffffffffffffffffffffffff19161480610f1e57507f5b5e139f000000000000000000000000000000000000000000000000000000007bffffffffffffffffffffffffffffffffffffffffffffffffffffffff1916827bffffffffffffffffffffffffffffffffffffffffffffffffffffffff1916145b80610f2e5750610f2d82611c38565b5b9050919050565b600080610f4183611675565b9050600073ffffffffffffffffffffffffffffffffffffffff168173ffffffffffffffffffffffffffffffffffffffff1603610fb457826040517f7e273289000000000000000000000000000000000000000000000000000000008152600401610fab919061289d565b60405180910390fd5b80915050919050565b60006004600083815260200190815260200160002060009054906101000a900473ffffffffffffffffffffffffffffffffffffffff169050919050565b600033905090565b61100f8383836001611ca2565b505050565b600080600090505b60096000858152602001908152602001600020805490508110156110d3578273ffffffffffffffffffffffffffffffffffffffff1660096000868152602001908152602001600020828154811061107657611075612da5565b5b9060005260206000200160009054906101000a900473ffffffffffffffffffffffffffffffffffffffff1673ffffffffffffffffffffffffffffffffffffffff16036110c65760019150506110d9565b808060010191505061101c565b50600090505b92915050565b60086000838152602001908152602001600020600001546008600084815260200190815260200160002060010160009054906101000a900473ffffffffffffffffffffffffffffffffffffffff1673ffffffffffffffffffffffffffffffffffffffff1663dd62ed3e83306040518363ffffffff1660e01b8152600401611167929190612dd4565b602060405180830381865afa158015611184573d6000803e3d6000fd5b505050506040513d601f19601f820116820180604052508101906111a89190612e12565b106114575760086000838152602001908152602001600020600001546008600084815260200190815260200160002060010160009054906101000a900473ffffffffffffffffffffffffffffffffffffffff1673ffffffffffffffffffffffffffffffffffffffff166370a08231836040518263ffffffff1660e01b81526004016112339190612470565b602060405180830381865afa158015611250573d6000803e3d6000fd5b505050506040513d601f19601f820116820180604052508101906112749190612e12565b10611457576008600083815260200190815260200160002060020154600a600084815260200190815260200160002060008373ffffffffffffffffffffffffffffffffffffffff1673ffffffffffffffffffffffffffffffffffffffff16815260200190815260200160002054426112ec9190612e3f565b10611457576008600083815260200190815260200160002060010160009054906101000a900473ffffffffffffffffffffffffffffffffffffffff1673ffffffffffffffffffffffffffffffffffffffff166323b872dd823060086000878152602001908152602001600020600001546040518463ffffffff1660e01b815260040161137a93929190612e73565b6020604051808303816000875af1158015611399573d6000803e3d6000fd5b505050506040513d601f19601f820116820180604052508101906113bd9190612ca1565b5042600a600084815260200190815260200160002060008373ffffffffffffffffffffffffffffffffffffffff1673ffffffffffffffffffffffffffffffffffffffff16815260200190815260200160002081905550600860008381526020019081526020016000206000015460086000848152602001908152602001600020600301600082825461144f9190612eaa565b925050819055505b5050565b60008061146784611675565b9050600073ffffffffffffffffffffffffffffffffffffffff168373ffffffffffffffffffffffffffffffffffffffff16146114a9576114a8818486611e67565b5b600073ffffffffffffffffffffffffffffffffffffffff168173ffffffffffffffffffffffffffffffffffffffff161461153a576114eb600085600080611ca2565b6001600360008373ffffffffffffffffffffffffffffffffffffffff1673ffffffffffffffffffffffffffffffffffffffff168152602001908152602001600020600082825403925050819055505b600073ffffffffffffffffffffffffffffffffffffffff168573ffffffffffffffffffffffffffffffffffffffff16146115bd576001600360008773ffffffffffffffffffffffffffffffffffffffff1673ffffffffffffffffffffffffffffffffffffffff168152602001908152602001600020600082825401925050819055505b846002600086815260200190815260200160002060006101000a81548173ffffffffffffffffffffffffffffffffffffffff021916908373ffffffffffffffffffffffffffffffffffffffff160217905550838573ffffffffffffffffffffffffffffffffffffffff168273ffffffffffffffffffffffffffffffffffffffff167fddf252ad1be2c89b69c2b068fc378daa952ba7f163c4a11628f55a4df523b3ef60405160405180910390a4809150509392505050565b60006002600083815260200190815260200160002060009054906101000a900473ffffffffffffffffffffffffffffffffffffffff169050919050565b60005b60096000838152602001908152602001600020805490508110156117395761172c826009600085815260200190815260200160002083815481106116fc576116fb612da5565b5b9060005260206000200160009054906101000a900473ffffffffffffffffffffffffffffffffffffffff166110df565b80806001019150506116b5565b5050565b600073ffffffffffffffffffffffffffffffffffffffff168273ffffffffffffffffffffffffffffffffffffffff16036117af5760006040517f64a0ae920000000000000000000000000000000000000000000000000000000081526004016117a69190612470565b60405180910390fd5b60006117bd8383600061145b565b9050600073ffffffffffffffffffffffffffffffffffffffff168173ffffffffffffffffffffffffffffffffffffffff16146118315760006040517f73c6ac6e0000000000000000000000000000000000000000000000000000000081526004016118289190612470565b60405180910390fd5b505050565b80600660008481526020019081526020016000209081611856919061308a565b507ff8e1a15aba9398e019f0b49df1a4fde98ee17ae345cb5f6b5e2c27f5033e8ce782604051611886919061289d565b60405180910390a15050565b600073ffffffffffffffffffffffffffffffffffffffff168273ffffffffffffffffffffffffffffffffffffffff160361190357816040517f5b08ba180000000000000000000000000000000000000000000000000000000081526004016118fa9190612470565b60405180910390fd5b80600560008573ffffffffffffffffffffffffffffffffffffffff1673ffffffffffffffffffffffffffffffffffffffff16815260200190815260200160002060008473ffffffffffffffffffffffffffffffffffffffff1673ffffffffffffffffffffffffffffffffffffffff16815260200190815260200160002060006101000a81548160ff0219169083151502179055508173ffffffffffffffffffffffffffffffffffffffff168373ffffffffffffffffffffffffffffffffffffffff167f17307eab39ab6107e8899845ad3d59bd9653f200f220920489ca2b5937696c31836040516119f491906122ff565b60405180910390a3505050565b60008373ffffffffffffffffffffffffffffffffffffffff163b1115611bb2578273ffffffffffffffffffffffffffffffffffffffff1663150b7a02611a45610ffa565b8685856040518563ffffffff1660e01b8152600401611a6794939291906131b1565b6020604051808303816000875af1925050508015611aa357506040513d601f19601f82011682018060405250810190611aa09190613212565b60015b611b27573d8060008114611ad3576040519150601f19603f3d011682016040523d82523d6000602084013e611ad8565b606091505b506000815103611b1f57836040517f64a0ae92000000000000000000000000000000000000000000000000000000008152600401611b169190612470565b60405180910390fd5b805181602001fd5b63150b7a0260e01b7bffffffffffffffffffffffffffffffffffffffffffffffffffffffff1916817bffffffffffffffffffffffffffffffffffffffffffffffffffffffff191614611bb057836040517f64a0ae92000000000000000000000000000000000000000000000000000000008152600401611ba79190612470565b60405180910390fd5b505b50505050565b606060405180602001604052806000815250905090565b6060611bda82610f35565b506000611be5611bb8565b90506000815111611c055760405180602001604052806000815250611c30565b80611c0f84611f2b565b604051602001611c20929190612d81565b6040516020818303038152906040525b915050919050565b60007f01ffc9a7000000000000000000000000000000000000000000000000000000007bffffffffffffffffffffffffffffffffffffffffffffffffffffffff1916827bffffffffffffffffffffffffffffffffffffffffffffffffffffffff1916149050919050565b8080611cdb5750600073ffffffffffffffffffffffffffffffffffffffff168273ffffffffffffffffffffffffffffffffffffffff1614155b15611e0f576000611ceb84610f35565b9050600073ffffffffffffffffffffffffffffffffffffffff168373ffffffffffffffffffffffffffffffffffffffff1614158015611d5657508273ffffffffffffffffffffffffffffffffffffffff168173ffffffffffffffffffffffffffffffffffffffff1614155b8015611d695750611d678184610dbf565b155b15611dab57826040517fa9fbf51f000000000000000000000000000000000000000000000000000000008152600401611da29190612470565b60405180910390fd5b8115611e0d57838573ffffffffffffffffffffffffffffffffffffffff168273ffffffffffffffffffffffffffffffffffffffff167f8c5be1e5ebec7d5bd14f71427d1e84f3dd0314c0f7b2291e5b200ac8c7c3b92560405160405180910390a45b505b836004600085815260200190815260200160002060006101000a81548173ffffffffffffffffffffffffffffffffffffffff021916908373ffffffffffffffffffffffffffffffffffffffff16021790555050505050565b611e72838383611ff9565b611f2657600073ffffffffffffffffffffffffffffffffffffffff168373ffffffffffffffffffffffffffffffffffffffff1603611ee757806040517f7e273289000000000000000000000000000000000000000000000000000000008152600401611ede919061289d565b60405180910390fd5b81816040517f177e802f000000000000000000000000000000000000000000000000000000008152600401611f1d929190612c63565b60405180910390fd5b505050565b606060006001611f3a846120ba565b01905060008167ffffffffffffffff811115611f5957611f586126b3565b5b6040519080825280601f01601f191660200182016040528015611f8b5781602001600182028036833780820191505090505b509050600082602001820190505b600115611fee578080600190039150507f3031323334353637383961626364656600000000000000000000000000000000600a86061a8153600a8581611fe257611fe161323f565b5b04945060008503611f99575b819350505050919050565b60008073ffffffffffffffffffffffffffffffffffffffff168373ffffffffffffffffffffffffffffffffffffffff16141580156120b157508273ffffffffffffffffffffffffffffffffffffffff168473ffffffffffffffffffffffffffffffffffffffff16148061207257506120718484610dbf565b5b806120b057508273ffffffffffffffffffffffffffffffffffffffff1661209883610fbd565b73ffffffffffffffffffffffffffffffffffffffff16145b5b90509392505050565b600080600090507a184f03e93ff9f4daa797ed6e38ed64bf6a1f0100000000000000008310612118577a184f03e93ff9f4daa797ed6e38ed64bf6a1f010000000000000000838161210e5761210d61323f565b5b0492506040810190505b6d04ee2d6d415b85acef81000000008310612155576d04ee2d6d415b85acef8100000000838161214b5761214a61323f565b5b0492506020810190505b662386f26fc10000831061218457662386f26fc10000838161217a5761217961323f565b5b0492506010810190505b6305f5e10083106121ad576305f5e10083816121a3576121a261323f565b5b0492506008810190505b61271083106121d25761271083816121c8576121c761323f565b5b0492506004810190505b606483106121f557606483816121eb576121ea61323f565b5b0492506002810190505b600a8310612204576001810190505b80915050919050565b604051806080016040528060008152602001600073ffffffffffffffffffffffffffffffffffffffff16815260200160008152602001600081525090565b6000604051905090565b600080fd5b600080fd5b60007fffffffff0000000000000000000000000000000000000000000000000000000082169050919050565b6122948161225f565b811461229f57600080fd5b50565b6000813590506122b18161228b565b92915050565b6000602082840312156122cd576122cc612255565b5b60006122db848285016122a2565b91505092915050565b60008115159050919050565b6122f9816122e4565b82525050565b600060208201905061231460008301846122f0565b92915050565b600081519050919050565b600082825260208201905092915050565b60005b83811015612354578082015181840152602081019050612339565b60008484015250505050565b6000601f19601f8301169050919050565b600061237c8261231a565b6123868185612325565b9350612396818560208601612336565b61239f81612360565b840191505092915050565b600060208201905081810360008301526123c48184612371565b905092915050565b6000819050919050565b6123df816123cc565b81146123ea57600080fd5b50565b6000813590506123fc816123d6565b92915050565b60006020828403121561241857612417612255565b5b6000612426848285016123ed565b91505092915050565b600073ffffffffffffffffffffffffffffffffffffffff82169050919050565b600061245a8261242f565b9050919050565b61246a8161244f565b82525050565b60006020820190506124856000830184612461565b92915050565b612494816123cc565b82525050565b6124a38161244f565b82525050565b6080820160008201516124bf600085018261248b565b5060208201516124d2602085018261249a565b5060408201516124e5604085018261248b565b5060608201516124f8606085018261248b565b50505050565b600060808201905061251360008301846124a9565b92915050565b6125228161244f565b811461252d57600080fd5b50565b60008135905061253f81612519565b92915050565b6000806040838503121561255c5761255b612255565b5b600061256a85828601612530565b925050602061257b858286016123ed565b9150509250929050565b60008060006060848603121561259e5761259d612255565b5b60006125ac86828701612530565b93505060206125bd86828701612530565b92505060406125ce868287016123ed565b9150509250925092565b600081519050919050565b600082825260208201905092915050565b6000819050602082019050919050565b6000612610838361249a565b60208301905092915050565b6000602082019050919050565b6000612634826125d8565b61263e81856125e3565b9350612649836125f4565b8060005b8381101561267a5781516126618882612604565b975061266c8361261c565b92505060018101905061264d565b5085935050505092915050565b600060208201905081810360008301526126a18184612629565b905092915050565b600080fd5b600080fd5b7f4e487b7100000000000000000000000000000000000000000000000000000000600052604160045260246000fd5b6126eb82612360565b810181811067ffffffffffffffff8211171561270a576127096126b3565b5b80604052505050565b600061271d61224b565b905061272982826126e2565b919050565b600067ffffffffffffffff821115612749576127486126b3565b5b61275282612360565b9050602081019050919050565b82818337600083830152505050565b600061278161277c8461272e565b612713565b90508281526020810184848401111561279d5761279c6126ae565b5b6127a884828561275f565b509392505050565b600082601f8301126127c5576127c46126a9565b5b81356127d584826020860161276e565b91505092915050565b600080600080608085870312156127f8576127f7612255565b5b6000612806878288016123ed565b945050602061281787828801612530565b9350506040612828878288016123ed565b925050606085013567ffffffffffffffff8111156128495761284861225a565b5b612855878288016127b0565b91505092959194509250565b60006020828403121561287757612876612255565b5b600061288584828501612530565b91505092915050565b612897816123cc565b82525050565b60006020820190506128b2600083018461288e565b92915050565b6128c1816122e4565b81146128cc57600080fd5b50565b6000813590506128de816128b8565b92915050565b600080604083850312156128fb576128fa612255565b5b600061290985828601612530565b925050602061291a858286016128cf565b9150509250929050565b600067ffffffffffffffff82111561293f5761293e6126b3565b5b61294882612360565b9050602081019050919050565b600061296861296384612924565b612713565b905082815260208101848484011115612984576129836126ae565b5b61298f84828561275f565b509392505050565b600082601f8301126129ac576129ab6126a9565b5b81356129bc848260208601612955565b91505092915050565b600080600080608085870312156129df576129de612255565b5b60006129ed87828801612530565b94505060206129fe87828801612530565b9350506040612a0f878288016123ed565b925050606085013567ffffffffffffffff811115612a3057612a2f61225a565b5b612a3c87828801612997565b91505092959194509250565b60008060408385031215612a5f57612a5e612255565b5b6000612a6d85828601612530565b9250506020612a7e85828601612530565b9150509250929050565b7f4e487b7100000000000000000000000000000000000000000000000000000000600052602260045260246000fd5b60006002820490506001821680612acf57607f821691505b602082108103612ae257612ae1612a88565b5b50919050565b7f416c726561647920737562736372696265640000000000000000000000000000600082015250565b6000612b1e601283612325565b9150612b2982612ae8565b602082019050919050565b60006020820190508181036000830152612b4d81612b11565b9050919050565b6000606082019050612b696000830186612461565b612b76602083018561288e565b612b836040830184612461565b949350505050565b7f4e6f74206f776e65720000000000000000000000000000000000000000000000600082015250565b6000612bc1600983612325565b9150612bcc82612b8b565b602082019050919050565b60006020820190508181036000830152612bf081612bb4565b9050919050565b7f42616c616e6365206973207a65726f0000000000000000000000000000000000600082015250565b6000612c2d600f83612325565b9150612c3882612bf7565b602082019050919050565b60006020820190508181036000830152612c5c81612c20565b9050919050565b6000604082019050612c786000830185612461565b612c85602083018461288e565b9392505050565b600081519050612c9b816128b8565b92915050565b600060208284031215612cb757612cb6612255565b5b6000612cc584828501612c8c565b91505092915050565b7f4e487b7100000000000000000000000000000000000000000000000000000000600052601160045260246000fd5b6000612d08826123cc565b91507fffffffffffffffffffffffffffffffffffffffffffffffffffffffffffffffff8203612d3a57612d39612cce565b5b600182019050919050565b600081905092915050565b6000612d5b8261231a565b612d658185612d45565b9350612d75818560208601612336565b80840191505092915050565b6000612d8d8285612d50565b9150612d998284612d50565b91508190509392505050565b7f4e487b7100000000000000000000000000000000000000000000000000000000600052603260045260246000fd5b6000604082019050612de96000830185612461565b612df66020830184612461565b9392505050565b600081519050612e0c816123d6565b92915050565b600060208284031215612e2857612e27612255565b5b6000612e3684828501612dfd565b91505092915050565b6000612e4a826123cc565b9150612e55836123cc565b9250828203905081811115612e6d57612e6c612cce565b5b92915050565b6000606082019050612e886000830186612461565b612e956020830185612461565b612ea2604083018461288e565b949350505050565b6000612eb5826123cc565b9150612ec0836123cc565b9250828201905080821115612ed857612ed7612cce565b5b92915050565b60008190508160005260206000209050919050565b60006020601f8301049050919050565b600082821b905092915050565b600060088302612f407fffffffffffffffffffffffffffffffffffffffffffffffffffffffffffffffff82612f03565b612f4a8683612f03565b95508019841693508086168417925050509392505050565b6000819050919050565b6000612f87612f82612f7d846123cc565b612f62565b6123cc565b9050919050565b6000819050919050565b612fa183612f6c565b612fb5612fad82612f8e565b848454612f10565b825550505050565b600090565b612fca612fbd565b612fd5818484612f98565b505050565b5b81811015612ff957612fee600082612fc2565b600181019050612fdb565b5050565b601f82111561303e5761300f81612ede565b61301884612ef3565b81016020851015613027578190505b61303b61303385612ef3565b830182612fda565b50505b505050565b600082821c905092915050565b600061306160001984600802613043565b1980831691505092915050565b600061307a8383613050565b9150826002028217905092915050565b6130938261231a565b67ffffffffffffffff8111156130ac576130ab6126b3565b5b6130b68254612ab7565b6130c1828285612ffd565b600060209050601f8311600181146130f457600084156130e2578287015190505b6130ec858261306e565b865550613154565b601f19841661310286612ede565b60005b8281101561312a57848901518255600182019150602085019450602081019050613105565b868310156131475784890151613143601f891682613050565b8355505b6001600288020188555050505b505050505050565b600081519050919050565b600082825260208201905092915050565b60006131838261315c565b61318d8185613167565b935061319d818560208601612336565b6131a681612360565b840191505092915050565b60006080820190506131c66000830187612461565b6131d36020830186612461565b6131e0604083018561288e565b81810360608301526131f28184613178565b905095945050505050565b60008151905061320c8161228b565b92915050565b60006020828403121561322857613227612255565b5b6000613236848285016131fd565b91505092915050565b7f4e487b7100000000000000000000000000000000000000000000000000000000600052601260045260246000fdfea26469706673582212201cadf4a6839677c8d3c333fd79c5b494a99230db7c4221237fd2476d1b2fa4dd64736f6c63430008180033",
  "linkReferences": {},
  "deployedLinkReferences": {}
}